:020000040800F2
:1000000030330024E102000839750008D17000087F
:10001000317500083904000801B70008000000002D
:10002000000000000000000000000000817F0008C8
:10003000210600080000000051750008897F0008B3
:10004000FB020008FB020008FB020008FB0200089C
:10005000FB020008FB020008FB020008FB0200088C
:10006000FB020008FB020008FB020008E90400088C
:10007000FB020008FB020008FB020008FB0200086C
:10008000FB020008FB020008FB0200083106000822
:10009000510600084106000861060008FB0200083E
:1000A000FB020008FB020008FB020008FB0200083C
:1000B000FB0200080981000819810008FB02000802
:1000C000FB020008FB020008FB020008FB0200081C
:1000D000FB020008FB020008FB020008FB0200080C
:1000E000FB020008FB02000800000000FB02000801
:1000F000FB020008FB020008FB020008FB020008EC
:10010000FB020008FB020008FB020008FB020008DB
:10011000FB020008FB020008FB020008FB020008CB
:10012000FB020008FB020008FB020008FB020008BB
:10013000FB020008FB020008FB0200087106000831
:1001400000000000000000000000000000000000AF
:10015000FB020008FB020008FB020008FB0200088B
:10016000FB020008FB020008FB020008FB0200087B
:10017000FB02000841750008FB02000800000000B7
:10018000FB020008FB020008A1820008FB02000835
:10019000FB020008FB020008FB020008FB0200084B
:1001A000FB020008FB020008FB0200080000000040
:1001B000FB020008FB020008FB020008FB0200082B
:1001C000FB020008FB020008000000000000000025
:1001D0000000000000000000FB020008000000001A
:1001E000000000000000000000000000000000000F
:1001F0000000000000000000FB020008FB020008F5
:10020000FB020008FB02000800000000FB020008DF
:10021000FB020008FB020008FB020008FB020008CA
:10022000FB02000800000000FB02000800000000C4
:10023000FB020008FB02000800000000FB020008AF
:10024000FB020008FB020008FB020008FB0200089A
:10025000FB020008FB020008FB020008FB0200088A
:10026000FB020008FB020008FB020008FB0200087A
:10027000FB020008FB020008FB020008000000006F
:10028000FB020008FB020008FB020008FB0200085A
:1002900000000000FB020008FB0200080000000054
:1002A00000000000FB020008FB020008FB0200083F
:1002B000018D0008FB020008FB020008FB02000899
:1002C000FB020008FB020008FB020008DFF80CD06C
:1002D00000F09AF800480047D9C4000830330024E1
:1002E0000648804706480047FEE7FEE7FEE7FEE7D0
:1002F000FEE7FEE7FEE7FEE7FEE7FEE759800008BF
:10030000CD0200082DE9F05F0546002092469B468D
:1003100088460646814640241BE02846414647461B
:10032000224600F061F853465A46C01A914110D354
:1003300011461846224600F048F82D1A67EB0108CE
:100340004F4622460120002100F03FF817EB00093C
:100350004E41201EA4F10104DFDC484631462A4606
:100360004346BDE8F09F10B5431A934209D2831863
:10037000881803E010F8011D03F8011D521EF9D280
:1003800010BD40EA01039B0703D009E008C9121F12
:1003900008C0042AFAD203E011F8013B00F8013B3F
:1003A000521EF9D210BDD2B201E000F8012B491E55
:1003B000FBD270470022F6E710B513460A46044602
:1003C0001946FFF7F0FF204610BD202A04DB203A33
:1003D00000FA02F1002070479140C2F1200320FA98
:1003E00003F3194390407047202A04DB203A21FA96
:1003F00002F00021704721FA02F3D040C2F120023E
:1004000091400843194670471CB5094800900948B7
:1004100001900546009C06E0E06840F0010394E886
:10042000070098471034AC42F6D3FFF753FF0000A3
:100430005CCA00087CCA0008FEE70000000000005B
:1004400000207047000000000020704700000000FE
:1004500010B541F2F47440F6D461C2F20044C2F225
:1004600000410022204608F023FE40F2D4612046DD
:10047000C2F2004108F00CFE002010BD0000000098
:1004800070B541F2F4760546C2F200460C4630469D
:10049000294608F0FDFD304608F0D6FD21682846C3
:1004A00007F032FA002070BD002070470000000005
:1004B00041F2F472C2F20042D2F8BC22D2F8142205
:1004C000002A1CBF0120704710B541F2F4740A469F
:1004D000C2F200440146204608F0EAFD2046BDE88D
:1004E000104008F069BE000041F6D020C2F2004082
:1004F00000F0BEBC0000000040F20F42D0F800C087
:10050000C4F20202944511DC6F22C4F20202944547
:1005100022DC3F22C4F20202944539DC1022C4F2EC
:10052000020294455AD0282254E000BF40F26F42A4
:10053000C4F2020294451BDC40F23F42C4F20202C4
:1005400094452DDC40F21042C4F20202944545D09D
:1005500040F228423EE000BF9F22C4F202029445CE
:1005600028DC7022C4F20202944537D0882231E0A0
:1005700040F29F42C4F20202944523DC40F27042F2
:10058000C4F20202944529D040F2884222E000BF22
:100590004022C4F20202944520D058221AE000BF43
:1005A00040F24042C4F20202944517D040F2584251
:1005B00010E000BFA022C4F2020294450ED0B8227F
:1005C00008E000BF40F2B842C4F20202944505D0F0
:1005D00040F2A042C4F20202944517D10CF0F80296
:1005E0004AF6AB23103ACAF6AA23A2FB03310AA3A8
:1005F0005F2AC1F302115B5C40F2FF312CEA01017A
:10060000C36588BF04318165084670472CF0FF013F
:1006100081650846704700BF0006101600061016D8
:10062000704700000000000072B600BFFEE7000047
:1006300041F64830C2F2004001F01ABE000000004E
:1006400041F64830C2F2004001F012BE0000000046
:1006500041F6E830C2F2004001F00ABE000000009E
:1006600041F6E830C2F2004001F002BE0000000096
:1006700080B541F64830C2F2004001F0F9FD41F684
:10068000E830C2F20040BDE8804001F0F1BD00005A
:100690002DE9F041044602F03BFE3CB3054694F8D8
:1006A0003500022826D1276840F20F46C4F2020620
:1006B00040F26F483868B74220F0010038606FF0B0
:1006C0000E00C4F202081DDC6F21C4F202018F4249
:1006D0002ADC3F21C4F202018F4241DC1021C4F226
:1006E00002018F4263D028215CE000BF0120BDE8F9
:1006F000F08100BF802060650120002184F8341063
:10070000BDE8F08147451BDC40F23F41C4F20201E5
:100710008F422DDC40F21041C4F202018F4246D0DC
:1007200040F228413EE000BF9F21C4F202018F4207
:1007300028DC7021C4F202018F4238D0882131E0D8
:1007400040F29F41C4F202018F4223DC40F270412B
:10075000C4F202018F422AD040F2884122E000BF59
:100760004021C4F202018F4221D058211AE000BF7B
:1007700040F24041C4F202018F4218D040F2584189
:1007800010E000BFA021C4F202018F420FD0B821B7
:1007900008E000BF40F2B841C4F202018F4206D027
:1007A00040F2A041C4F202018F42394607D13946D6
:1007B000386820F01E0041F8140B6FF080000A68C2
:1007C000474500EA020008601ADC9F20C4F20200DC
:1007D000874233DC5720C4F2020087425ADC1020E3
:1007E000C4F20200874200F097802820C4F2020081
:1007F000874200F091804020C4F202008AE000BFEE
:1008000045F22F40C5F6020087422DDC40F2B7408A
:10081000C4F2020087424BDC40F27040C4F2020096
:10082000874279D040F28840C4F20200874273D0F8
:1008300040F2A040C4F202006CE000BF40F227404A
:10084000C4F20200874243DCA020C4F202008742C7
:1008500062D0B820C4F2020087425DD040F210405E
:10086000C4F2020056E000BF45F26B40C5F602003C
:1008700087423FDC45F23040C5F6020087424BD04C
:1008800045F24440C5F60200874245D045F2584043
:100890003EE000BF5820C4F2020087423CD07020E6
:1008A000C4F20200874237D08820C4F2020031E04F
:1008B00040F2B840C4F2020087422DD045F2084011
:1008C000C5F60200874227D045F21C4020E000BF59
:1008D00040F22840C4F2020087421DD040F240405E
:1008E000C4F20200874217D040F25840C4F202001E
:1008F00010E000BF45F26C40C5F6020087420BD005
:1009000045F29440C5F60200874205D045F280408A
:10091000C5F60200874205D1206E016821F480717E
:10092000016000BF3868C00710D002F0F1FC401B26
:100930000628F7D320206065032084F835000120C5
:10094000002184F83410BDE8F08100BF2068082140
:10095000B0424FF03F0211DC6F23C4F20203984211
:100960001EDC3F23C4F20203984235DC1023C4F29C
:100970000203984257D0282350E000BF40451BDCBB
:1009800040F23F43C4F2020398422DDC40F2104390
:10099000C4F20203984246D040F228433EE000BF32
:1009A0009F23C4F20203984228DC7023C4F202039E
:1009B000984238D0882331E040F29F43C4F20203CA
:1009C000984223DC40F27043C4F2020398422AD0DA
:1009D00040F2884322E000BF4023C4F20203984261
:1009E00021D058231AE000BF40F24043C4F2020372
:1009F000984218D040F2584310E000BFA023C4F240
:100A0000020398420FD0B82308E000BF40F2A04391
:100A1000C4F20203984206D040F2B843C4F2020383
:100A2000984240F0C580D4E9163707F01F074045CB
:100A300002FA07F25A5019DC9F21C4F202018842DF
:100A400032DC5721C4F20201884259DC1021C4F281
:100A50000201884200F096802821C4F202018842F7
:100A600000F090804021C4F2020189E045F22F415C
:100A7000C5F6020188422DDC40F2B741C4F2020102
:100A800088424BDC40F27041C4F20201884279D0C6
:100A900040F28841C4F20201884273D040F2A04182
:100AA000C4F202016CE000BF40F22741C4F202012F
:100AB000884243DCA021C4F20201884262D0B821FE
:100AC000C4F2020188425DD040F21041C4F202013A
:100AD00056E000BF45F26B41C5F6020188423FDC9B
:100AE00045F23041C5F6020188424BD045F24441FF
:100AF000C5F60201884245D045F258413EE000BFAC
:100B00005821C4F2020188423CD07021C4F2020193
:100B1000884237D08821C4F2020131E040F2B84166
:100B2000C4F2020188422DD045F20841C5F6020107
:100B3000884227D045F21C4120E000BF40F2284106
:100B4000C4F2020188421DD040F24041C4F20201C9
:100B5000884217D040F25841C4F2020110E000BFB1
:100B600045F26C41C5F6020188420BD045F2944132
:100B7000C5F60201884205D045F28041C5F6020162
:100B800088420BD1616EA26EE06E4A6030B101689E
:100B900021F480710160D4E91C014160012084F8D6
:100BA00035000020002184F83410BDE8F08100BF3A
:100BB0000421012237E70000F0B190F83510022936
:100BC00018D180B540F20F420168C4F2020291428E
:100BD00014DC6F23C4F20203994225DC3F23C4F2E4
:100BE000020399423CDC1023C4F2020399425DD017
:100BF000282357E0802141650120704740F26F4370
:100C0000C4F2020399421BDC40F23F43C4F20203E8
:100C100099422DDC40F21043C4F20203994245D0C0
:100C200040F228433EE000BF9F23C4F202039942F2
:100C300028DC7023C4F20203994237D0882331E0C4
:100C400040F29F43C4F20203994223DC40F2704316
:100C5000C4F20203994229D040F2884322E000BF47
:100C60004023C4F20203994220D058231AE000BF67
:100C700040F24043C4F20203994217D040F2584375
:100C800010E000BFA023C4F2020399420ED0B823A3
:100C900008E000BF40F2B843C4F20203994205D015
:100CA00040F2A043C4F20203994275D191424FF041
:100CB000040280F8352011DC6F20C4F2020081426A
:100CC00022DC3F20C4F20200814239DC1020C4F251
:100CD0000200814259D0282054E000BF40F26F400A
:100CE000C4F2020081421BDC40F23F40C4F2020029
:100CF00081422DDC40F21040C4F20200814244D017
:100D000040F228403EE000BF9F20C4F20200814232
:100D100028DC7020C4F20200814236D0882031E005
:100D200040F29F40C4F20200814223DC40F2704056
:100D3000C4F20200814228D040F2884022E000BF85
:100D40004020C4F2020081421FD058201AE000BFA8
:100D500040F24040C4F20200814216D040F25840B6
:100D600010E000BFA020C4F2020081420DD0B820E4
:100D700008E000BF40F2B840C4F20200814204D053
:100D800040F2A040C4F202008142086820F0010055
:100D90000860002080BD00BF0A6822F001020A60DE
:100DA00045F25742C5F6020291420A6822F00E024D
:100DB0000A600FDC45F22F42C5F60202914219DCAF
:100DC00045F20842C5F60202914229D045F21C4282
:100DD00022E000BF45F27F42C5F60202914213DCD9
:100DE00045F25842C5F60202914219D045F26C42D2
:100DF00012E000BF45F23042C5F6020291420FD028
:100E000045F2444208E000BF45F29442C5F60202B2
:100E1000914205D045F28042C5F6020291421AD1B4
:100E2000D0E9181CD0E916E30A6822F480720A603F
:100E300003F01F01012202FA01F1CEF80410816EC5
:100E4000CCF80410C16E31B10A6822F480720A60D5
:100E5000D0E91C124A60012180F83510016D002292
:100E6000002980F8342094D08847002080BD0000FD
:100E70002DE9F04782B00021019140F20C0148F2C7
:100E8000B513C2F20041C1F64E33856D40F26F4991
:100E90000A680168C4F202092E68A2FB03284945CA
:100EA0002A6815DC9F22C4F2020291422CDC5722F0
:100EB000C4F20202914251DC1022C4F202029142B9
:100EC0007BD02822C4F20202914276D040226FE009
:100ED00045F22F43C5F60203994229DC40F2B7439D
:100EE000C4F20203994245DC40F27042C4F20202AD
:100EF000914262D040F28842C4F2020291425CD038
:100F000040F2A04254E000BF40F22742C4F2020285
:100F100091423FDCA022C4F2020291424DD0B8229D
:100F2000C4F20202914248D040F2104240E000BFB9
:100F300045F26B43C5F60203994275DC45F2304336
:100F4000C5F60203994200F0828045F24443C5F69B
:100F5000020399427BD045F2584373E05822C4F211
:100F60000202914229D07022C4F20202914224D09E
:100F700088221DE040F2B843C4F2020399421CD01B
:100F800045F20843C5F60203994260D045F21C437E
:100F900058E000BF40F22842C4F2020291420CD055
:100FA00040F24042C4F20202914206D040F258425E
:100FB000C4F20202914240F05383C26D082302F052
:100FC0001F0240F20F4A9340C4F2020A334200F07B
:100FD000DE8051454FF0040412DC6F27C4F2020793
:100FE000B9426DDC3F27C4F20207B94200F39C808E
:100FF0001027C4F20207B94200F0BD802827B5E0EF
:10100000494569DC40F23F47C4F20207B94200F3A8
:10101000938040F21047C4F20207B94200F0AB805F
:1010200040F22847A2E000BF45F26C43C5F6020338
:1010300099420CD045F28043C5F60203994206D08E
:1010400045F29443C5F60203994240F009830B68C8
:10105000C76D07F01F070426BE40164218BF13F0E5
:10106000040423D10226BE40164218BF13F0020426
:1010700042D1FA40120740F1F38213F0080200F067
:10108000EF820A6822F00E020A60012101FA07F2DB
:101090006A60416580F83510C16C00294FF000028C
:1010A00080F8342040F0D882DAE200BF1A046E6083
:1010B00034D49A0635D40A6822F004020A6030E07B
:1010C0009F27C4F20207B94240DC7027C4F202072E
:1010D000B94250D0882749E040F29F47C4F2020746
:1010E000B9423BDC40F27047C4F20207B94242D039
:1010F00040F288473AE000BF1A046E6000F1B48203
:101100009A0600F1B5820A6822F00A020A600121FB
:1011100080F83510002180F83410A9E2D90300F1DD
:10112000A982016C97E200BF4027C4F20207B942CE
:1011300021D058271AE000BF40F24047C4F202070E
:10114000B94218D040F2584710E000BFA027C4F2BF
:101150000207B9420FD0B82708E000BF40F2A0470D
:10116000C4F20207B94206D040F2B847C4F20207FF
:10117000B94218BF08240F68274208D00F6827F02B
:1011800004070F60AB60436D43F001034365012327
:10119000934033426FD0514510DC6F27C4F20207F1
:1011A000B9421DDC3F27C4F20207B94234DC1027E4
:1011B000C4F20207B94256D028274FE049451BDC4C
:1011C00040F23F47C4F20207B9422DDC40F210471B
:1011D000C4F20207B94246D040F228473EE000BFC1
:1011E0009F27C4F20207B94228DC7027C4F2020725
:1011F000B94238D0882731E040F29F47C4F2020755
:10120000B94223DC40F27047C4F20207B9422AD047
:1012100040F2884722E000BF4027C4F20207B942EB
:1012200021D058271AE000BF40F24047C4F202071D
:10123000B94218D040F2584710E000BFA027C4F2CE
:101240000207B9420FD0B82708E000BF40F2A0471C
:10125000C4F20207B94206D040F2B847C4F202070E
:10126000B94240F00D824F693F0604D5AB60436D33
:1012700043F0020343650423934033426FD051454A
:1012800010DC6F27C4F20207B9421DDC3F27C4F20D
:101290000207B94234DC1027C4F20207B94256D023
:1012A00028274FE049451BDC40F23F47C4F20207C4
:1012B000B9422DDC40F21047C4F20207B94246D0D1
:1012C00040F228473EE000BF9F27C4F20207B94220
:1012D00028DC7027C4F20207B94238D0882731E0F1
:1012E00040F29F47C4F20207B94223DC40F2704744
:1012F000C4F20207B9422AD040F2884722E000BF78
:101300004027C4F20207B94221D058271AE000BF93
:1013100040F24047C4F20207B94218D040F25847A1
:1013200010E000BFA027C4F20207B9420FD0B827CF
:1013300008E000BF40F2A047C4F20207B94206D05D
:1013400040F2B847C4F20207B94240F0A1810F68E9
:10135000BF0704D5AB60436D43F00403436510231E
:1013600003FA02F2324200F0828051454FF0080346
:1013700010DC6F27C4F20207B9421DDC3F27C4F21C
:101380000207B94234DC1027C4F20207B94256D032
:1013900028274FE049451BDC40F23F47C4F20207D3
:1013A000B9422DDC40F21047C4F20207B94246D0E0
:1013B00040F228473EE000BF9F27C4F20207B9422F
:1013C00028DC7027C4F20207B94238D0882731E000
:1013D00040F29F47C4F20207B94223DC40F2704753
:1013E000C4F20207B9422AD040F2884722E000BF87
:1013F0004027C4F20207B94221D058271AE000BFA3
:1014000040F24047C4F20207B94218D040F25847B0
:1014100010E000BFA027C4F20207B9420FD0B827DE
:1014200008E000BF40F2A047C4F20207B94206D06C
:1014300040F2B847C4F20207B94218BF04230F684C
:101440001F4214D0AA600A6852030A6808D4D20561
:1014500008D40A6822F008020A60016C21B906E08B
:10146000110351D4016C11B1044688472046C16D67
:1014700001F01F02202101FA02F3334200F0AF8095
:1014800001681027514511DC6F26C4F20206B142F3
:101490001EDC3F26C4F20206B14239DC1026C4F23B
:1014A0000206B1425BD0282654E000BF49451BDC50
:1014B00040F23F46C4F20206B14231DC40F210462F
:1014C000C4F20206B1424AD040F2284642E000BFD0
:1014D0009F26C4F20206B1422CDC7026C4F202063A
:1014E000B1423CD0882635E040F29F46C4F2020665
:1014F000B14227DC40F27046C4F20206B1422ED05F
:1015000040F2884626E000BF816C0029ACD1AEE7EE
:101510004026C4F20206B14221D058261AE000BF8C
:1015200040F24046C4F20206B14218D040F258469A
:1015300010E000BFA026C4F20206B1420FD0B826C8
:1015400008E000BF40F2A046C4F20206B14206D055
:1015500040F2B846C4F20206B14218BF02270E6834
:101560003E423CD0AB6090F83530042B0B681DD167
:1015700023F016030B604B6923F080034B61036C6F
:101580000BB9836C1BB10B6823F008030B603F2180
:101590009140A960012180F83510016D00294FF0BC
:1015A000000280F8342057D15AE000BF5A030A687D
:1015B0000ED4D2050ED40A6822F010020A6001216E
:1015C00080F83510002180F83410C16B21B906E095
:1015D000110351D4C16B11B1044688472046416DB7
:1015E00000293DD0416DC90734D0042180F8351061
:1015F00001684FEA98220B6823F001030B60019BFE
:101600000133019393421AD80B68DB0717D0019B73
:1016100001330193934212D80B68DB070FD0019B73
:101620000133019393420AD80B68DB0707D0019B73
:1016300001330193934202D80B68DB07DFD10968BD
:10164000C9074FF0030108BF012180F835100021C0
:1016500080F83410C16C19B102B0BDE8F0470847FA
:1016600002B0BDE8F08700BFD90301D4416CF2E7B6
:10167000C16BF0E7816CEEE7416C0029ACD1AEE7BD
:101680000B680423934033427FF4F9AD67E600BF53
:101690000B6864E6000000002DE9F041044601F00B
:1016A00037FEFCB140F26F4805462068C4F20208DC
:1016B00040451BDC9F21C4F20201884232DC5721E5
:1016C000C4F20201884259DC1021C4F202018842AE
:1016D00000F083802821C4F20201884200F07D805E
:1016E000402175E00120BDE8F08100BF45F22F41A7
:1016F000C5F60201884229DC40F2B741C4F202017A
:10170000884247DC40F27041C4F20201884264D052
:1017100040F28841C4F2020188425ED040F2A0410A
:1017200056E000BF40F22741C4F20201884241DC8A
:10173000A021C4F2020188424FD0B821C4F20201B4
:1017400088424AD040F2104142E000BF45F26B416E
:10175000C5F60201884200F3D18045F23041C5F65A
:101760000201884200F0DD8045F24441C5F60201E5
:10177000884200F0D68045F25841CDE05821C4F2AD
:101780000201884229D07021C4F20201884224D08B
:1017900088211DE040F2B841C4F2020188421CD009
:1017A00045F20841C5F60201884200F0BA8045F2D0
:1017B0001C41B1E040F22841C4F2020188420CD041
:1017C00040F24041C4F20201884206D040F2584142
:1017D000C4F20201884240F03981022184F83510B8
:1017E000002184F83410016821F00101016000BF7C
:1017F00020680168C9070DD001F08AFD401B06284A
:10180000F6D320206065032084F835000120BDE870
:10181000F08100BF48F23F0204F108060168CFF6EC
:101820001062114065694CCE1143A2691943E36906
:101830003143266A0D43616A2B43042943EA0603B8
:1018400043EA020303D1D4E90B652E4333436568B1
:10185000A5F12906292E00F23182DFE816F02B00CF
:101860002B002B002B002B002B002F022F022F020E
:101870002F022F022F022F022F022F022F022F02E0
:101880002F022F022F022F022F022B002B002B00E2
:101890002B002F022F022F022F022B002B002F02D2
:1018A0002F022F022F022F022F022B002B002B00C2
:1018B0002B0000BF43F4801303600429436923F025
:1018C000070341EA030140F0DD80D4E90A53002B0D
:1018D00041EA050100F0D680B2F5005F00F0B88063
:1018E000002A40F0C180022D00F0C180012D00F0DF
:1018F000B580002D00F0BB80C4E000BF45F26C4114
:10190000C5F6020188420CD045F28041C5F60201BD
:10191000884206D045F29441C5F60201884240F063
:10192000958004F1080E022184F83510002184F816
:1019300034100168A3699EE80450A2F18005E769AC
:10194000B5FA85F566696D09402A4FEA853543EA9F
:1019500007026FF3101142EA060208BF102541EAA0
:10196000DC0142EA0E02236A294341EAD20141EA3C
:10197000131140F80819C0B2CD2148433C2101EAB7
:101980009020E0652046FEF7B7FDE16D012201F0F1
:101990001F0102FA01F141602068404500F3818097
:1019A0009F21C4F20201884214DC5721C4F20201D3
:1019B000884227DC1021C4F20201884200F0C7806F
:1019C0002821C4F20201884200F0C1804021C4F203
:1019D0000201B9E040F22741C4F20201884221DC51
:1019E000A021C4F20201884200F0B180B821C4F203
:1019F0000201884200F0AB8040F21041C4F20201C3
:101A0000A2E000BF5821C4F20201884200F09F808A
:101A10007021C4F20201884200F099808821C4F24A
:101A2000020191E040F22841C4F20201884200F034
:101A30008E8040F24041C4F20201884200F087806B
:101A400040F25841C4F202017EE000BF4020D9E6D6
:101A5000032D17D8DFE805F00E0B0E02A3F1C072BC
:101A6000B2FA82F2520904E0032D03D30AD1C3F380
:101A700000623AB140206065012084F83500BDE87D
:101A8000F08100BF41612046FEF736FDE16D3F2247
:101A900001F01F0102FA01F18160206840457FF7E3
:101AA0007FAF45F22F41C5F60201884216DC40F2B5
:101AB000B741C4F20201884226DC40F27041C4F210
:101AC0000201884243D040F28841C4F202018842B8
:101AD0003DD040F2A041C4F2020135E045F26B4135
:101AE000C5F6020188421FDC45F23041C5F602010D
:101AF00088422CD045F24441C5F60201884226D0E6
:101B000045F258411EE000BF40F2B841C4F2020164
:101B100088421CD045F20841C5F60201884216D021
:101B200045F21C410EE000BF45F26C41C5F60201D2
:101B300088420CD045F29441C5F60201884206D095
:101B400045F28041C5F60201884240F0E18045F24D
:101B5000574C45F6FC0EC5F6020CC5F6020E604564
:101B60000EDC45F22F41C5F60201884218DC45F231
:101B70000841C5F60201884228D045F21C4121E007
:101B800045F27F41C5F60201884213DC45F2584117
:101B9000C5F60201884219D045F26C4112E000BF3F
:101BA00045F23041C5F6020188420FD045F244416A
:101BB00008E000BF45F29441C5F60201884205D015
:101BC00045F28041C5F60201884247D100F0FC0190
:101BD0004CF6CD420839CCF6CC42A1FB0212AEF154
:101BE000FC05AEF17C061309A26803F01F01802AF0
:101BF0004FF0010205EB8305256602FA01F26666E5
:101C0000A26605D100206060286072601EE000BFFF
:101C10006368D9B25F1E072F2960726016D84E1E06
:101C2000082E19D260450EF1440237DC45F22F41EF
:101C3000C5F60201884249DC45F20841C5F60201B9
:101C4000884259D045F21C4152E000BF0020606735
:101C5000C4E91B005CE000BFE06E54E000F0F80156
:101C60004AF6AB221039CAF6AA22A1FB021240F2B0
:101C70000F43C4F2020308251109984203F1AA0692
:101C80000B4688BF05EB121340F60005B042C4F2C4
:101C9000020505F1800628BF0B46A5E745F27F4106
:101CA000C5F6020188421BDC45F25841C5F6020127
:101CB000884221D045F26C411AE000BF25F00307AD
:101CC000742F08BF43F48013F6E500BF45F230419E
:101CD000C5F6020188420FD045F2444108E000BF3A
:101CE00045F28041C5F60201884205D045F2944193
:101CF000C5F60201884213D10EEB83000121E06694
:101D0000B1402267616700210160D4E91C01416094
:101D100000206065012184F83510BDE8F08100BF26
:101D200040F60000C4F2020000F1FC0E00F5A072C3
:101D3000E2E7000000000000B0B5044601F0E8FA58
:101D400040F204010546C2F20041621C097818BF46
:101D50000C4400BF01F0DCFA401BA042FAD3B0BD36
:101D600090F89830013B012B0ED80068836D0B4230
:101D700012D0836D0B408B4232D1C36D43F002030E
:101D8000C3658B050ED412E000F19C0101200222F4
:101D90000B681A430A607047C36D43F00103C365C3
:101DA0008B0504D5D0F8E0301343C0F8E0304B0584
:101DB00004D5D0F8E4301A43C0F8E4204FF6FF729F
:101DC000436DC3F6CF720A401A4342658A0F4AF642
:101DD00014010020C4F200010B681A430A60704726
:101DE0000323C3658B05DDD4E1E70000000000009C
:101DF00090F89830022B1BD12DE9F0430668D6F8F5
:101E0000C03013F07C5F1BD0D6F8C4309B0221D4C5
:101E1000D6F8C4300C69C3F3044CD1E90035002D69
:101E20008D6821D023432B4343F0804E20E000BF38
:101E3000D0F89C1041F00801C0F89C1001207047B8
:101E4000D0F89C1041F02001C0F89C100120BDE8A2
:101E5000F08300BFD0F89C1041F40071C0F89C10D2
:101E60000120BDE8F08300BF44EA834343EA050E46
:101E7000836ED0F88450D1E907970CFB03F48B698B
:101E800049EA0767D1F81480D1F80C901F4305EB9D
:101E9000840347EA080745F824E047EA09475F60FA
:101EA000CF6887B14CF63C25083303320024C0F6D6
:101EB000000500BF171957F8037C1F51CF68043481
:101EC000EF5DBC42F6D3012101FA0CF1C6F8D01047
:101ED000C0F894100020BDE8F0830000000000006E
:101EE000704700000000000090F89830012B0FD1DF
:101EF000012900684FEA026212D0D9B9D0F8F01077
:101F000021F07C511143C0F8F0100020704700BF51
:101F1000D0F89C1041F00401C0F89C1001207047DB
:101F2000D0F8A01021F0FE411143C0F8A01000200D
:101F3000704700BFD0F8B01021F0FE411143C0F847
:101F4000B01000207047000090F89820013A012A54
:101F50000CD880B50A68002ACA680FD00B69072A16
:101F600043EA427E18D18B691BE000BFD0F89C1079
:101F700041F00201C0F89C1001207047072A19D1D6
:101F80000A69D1E906C3120442EA032242EA0C02BA
:101F900042F0605218E000BFD1F808C04B6943EA34
:101FA0008C73006F496800EBC10240F831E0536068
:101FB000002080BD8B68D1E904CE9B0743EAC26252
:101FC00042EA0C4242EA0E024968C06E40F8212003
:101FD000002080BD0000000090F898C0BCF1010F07
:101FE0000ED19200006842EA0111DDF800C041EA1A
:101FF000430141EA0C01C0F880100020704700BF87
:10200000D0F89C1041F00401C0F89C1001207047EA
:1020100090B110B5044600F003FE2068C16D21F0B8
:102020000301C165204600F0BFFC0020C4F89C00FD
:1020300084F8980010BD00BF012070470000000028
:102040007047000000000000890158BF7047006819
:10205000816921F0010181617047000000000000EA
:102060002DE9F04390F89870022F25D140292DD109
:102070000668D6F8A07017F4FE0F00F0C180D6F8FD
:10208000A4707F0600F0CE80D6F8A470D6F8A450D5
:10209000ED01C7F3052E0AD5D6F8A070B7F1FF3FC2
:1020A00005DC0EF10107D6F8A06007EA164E4424BD
:1020B0007425F44638E000BFD0F89C1041F00801C8
:1020C000C0F89C100120BDE8F08300BF412923D156
:1020D0000668D6F8B07017F4FE0F00F09180D6F8BD
:1020E000B4707F0600F09E80D6F8B470D6F8B45075
:1020F000ED01C7F3052E0AD5D6F8B070B7F1FF3F52
:1021000005DC0EF10107D6F8B06007EA164E4C2444
:102110007825F44608E000BF076D8F4270D94FF074
:10212000000C54247C258E46045945590EFB04F4BA
:1021300005EB840E55F8247017F08047576055F86A
:10214000247027F0604608BFC7F38A46166055F82A
:10215000247007F00057976055F8244004F00044BD
:102160001461BEF80440D461BEF8064014F00F04B8
:10217000D460DEF8044004F480145461DEF80440B6
:1021800004F4001494619EF8074004F07F04146284
:10219000DEF804404FEAD474546228D04CF63C2850
:1021A0000024C0F600080EEB0406651C377A1F55A4
:1021B000D76818F80770BD4219D21F19757A7D705B
:1021C000D56818F80590A51C4D453FBFB57ABD7080
:1021D000D56818F805903CBFE51C4D4507D2F57A47
:1021E0000434FD70D56818F80550AC42DBD34029A3
:1021F00010D10068C0F8A8C00020BDE8F08300BF7F
:10220000D0F89C1041F02001C0F89C100120BDE8DE
:10221000F08300BF41290FD10068C0F8B8C000208A
:10222000BDE8F083D0F89C1041F48071C0F89C1098
:102230000120BDE8F08300BF1F2909D800680122F2
:1022400002FA01F1C0F898100020BDE8F08300BF49
:10225000006801F01F01012202FA01F1C0F89C1090
:102260000020BDE8F083000070470000000000007F
:102270002DE9F04F87B004464AF61000C4F2000082
:1022800001684AF61400C4F20000026820680A409F
:10229000D0F850B0D0F85490056D466D036D0293A0
:1022A000436D0193036D0693436D0593036D049392
:1022B000436D0393D0F854A0D0F850805FEACA531E
:1022C00011D518F480710ED04FF4807101654AF673
:1022D00010010020C4F20001174608602046FFF7F5
:1022E000C3FF3A4620685FEA4A510BEA090B4FEAFE
:1022F000827740F14B814AF6100918F48061C4F2EC
:10230000000910D0D0F8DC100092D0F8E420114081
:102310004FF4806202650020C9F80000204600F0FA
:102320005BFE009A206805EA06050BF4704657B17B
:102330000021016502F00300C9F80000204639467B
:10234000FFF7CEFD2068DDE9012101EA020705F073
:102350000F0546B106650020C9F800002046314649
:1023600000F042FE206807F0F00645B10565002048
:10237000C9F800002046294600F01EFC206846B13E
:1023800006650020C9F800002046314600F028FC10
:1023900020685FEA0A510CD518F4006109D04FF4A7
:1023A000006101650020C9F80000204600F020FE11
:1023B00020685FEA8A5111D518F400710ED0D0F868
:1023C000D810D0F8E02011404FF4007202650020D0
:1023D000C9F80000204600F003FE20685FEA0A31D9
:1023E0000CD518F4002109D04FF40021016500201C
:1023F000C9F80000204600F0DBFB20685FEACA3124
:102400000CD518F4803109D04FF4803101650020DB
:10241000C9F80000204600F0DBFD20685FEA4A3181
:10242000DDE9032101EA02050CD518F4802109D069
:102430004FF4802101650020C9F80000204600F01B
:10244000C3FD20685FEA8A31DDE9052102EA010265
:1024500005F060710ED518F400330BD04FF4003343
:1024600003650023C9F80030D4F89C3043F08003A2
:10247000C4F89C3002F0715539B101650020C9F8EB
:1024800000002046FFF7E0FD206845B1056500210A
:10249000C9F80010D4F89C102943C4F89C10A9F581
:1024A000016188420AD0D4F89C0000286AD02046F6
:1024B00007B0BDE8F04FFFF7C3BD00BF606881689B
:1024C0008907F0D0016A426A036A476A114003EA49
:1024D000070202F03005D0F82080D0F82490D0F820
:1024E00020B0466A026A069211F00F01426A059214
:1024F000D0F824A0026A049203D00162204600F0C2
:1025000057FD08EA09072DB1606829460562204693
:1025100000F056FD5FEA4A6006EA0B0607F4C07554
:102520000ED5049810F040000AD060684023C16BBB
:10253000C26B090C02F03F020362204600F03CFD32
:10254000DDE9051000EA010706F4FC462DB16068DC
:1025500029460562204600F027FD07F4F02036B139
:1025600061680E62D4F89C103143C4F89C100028B6
:1025700099D061680862D4F89C100843C4F89C00A4
:1025800091E700BF07B0BDE8F08F00BF4AF6100921
:10259000C4F20009002F05EA06050BF470467FF42B
:1025A000C7AED0E600000000F0B12DE9F04F83B0D7
:1025B0004AF200080446C4F200080068404533D0DF
:1025C00094F89810B9B3816921F01001816100F08D
:1025D0009FFE054620688169090707D500F098FE2F
:1025E000401B0B28F6D312E001207047816941F0AF
:1025F0000101816100F08CFE054600BF2068816901
:10260000C90721D100F084FE401B0B28F6D301201E
:10261000D4F89C100843C4F89C00032084F8980068
:10262000012003B0BDE8F08F08F58071616094F877
:1026300098100029C7D1002084F89900204600F0A6
:1026400007FA2068BFE700BF816941F0020181619C
:10265000217C826922F04002012918BF4032826148
:10266000617C826922F48042012908BF02F5804220
:102670008261A17C826922F48052012918BF02F58F
:1026800080528261816921F44073D4E902120B43C4
:102690008361836923F0A4038361036923F010033A
:1026A00003619AB1012A0DD0022A09D08369032A55
:1026B00043F080038361036943F01002026105D196
:1026C000202200E0042283691A438261D4E9057262
:1026D000E369561E6FF0FF02256A02EB0323B1F592
:1026E000407F43EA4663A5F1010646EA030640F24D
:1026F0000003CFF6FF7303EB074746EA0701C1610A
:1027000010D1D4E90B65D4E90917013F02EB062289
:102710006FF00F063A4306EB05173A4303EB01410E
:102720001143C160236E2BB1616ED0F8C0201143FC
:10273000C0F8C010E16DCDE90113D9424CF6BC11CF
:10274000C0F6000109D0D0F8C820A36E22F007021D
:1027500051F823301A43C0F8C820D4F840C0BCF167
:10276000000F09D0D0F8BC20636C22F0070251F8AA
:1027700023301A43C0F8BC20D4F848B0BBF1000F96
:102780000AD0D0F8BC20E36C22F0700251F823305C
:1027900042EA0312C0F8BC20D4F850A0BAF1000FEE
:1027A0000AD0D0F8BC20636D22F4E06251F8231007
:1027B00042EA0121C0F8BC10404504D161688A6832
:1027C00022F003028A600021C4F89410C4F89C101F
:1027D000012184F8981004F13409D0F884104FF6E0
:1027E000FC729143656C99E80C02009541EA820104
:1027F000C0F88410D0F8841021F47F0141EA03412D
:10280000C0F884109918D0F888306FF38F0343EA2A
:102810008103C0F88830D0F8883023F4FE0343EAFF
:102820000943C0F8883001EB4903D0F8A0606FF38A
:102830008F0646EA8306C0F8A060D0F8A06026F4B0
:10284000FE0646EA0C46C0F8A06005FB0C36D0F840
:10285000B0306FF38F0343EA8603C0F8B030D0F88E
:10286000B03023F4FE0343EA0B43C0F8B030E36C0E
:10287000D0F8AC506FF38F0503FB0B6645EA860575
:10288000C0F8AC50D4F8548008FB0A65D0F8F0606A
:102890006FF38F0646EA8506C0F8F060D0F8F0E0E6
:1028A000A66D2EF47C1747EA0647C0F8F070F700D3
:1028B00007EB8507D0F8C0506FF38F052F43C0F8A2
:1028C000C070D0F8C070009DDDF804E027F47C17DC
:1028D00005FB0CFC4AF2000547EA0E47C0F8C07041
:1028E000C4F2000503FB0BC305F54067D0F8C050E8
:1028F00007EB820207EB810125F07C57029D47EA36
:102900000567C0F8C07001EBC90008FB0A372167F2
:10291000A16E00EB8C0C606700EB8303E266C4E9F8
:102920001EC30EFB01F300EB87006943C4F880006F
:1029300000EBC600C4F8840000EB8300C4F88800F4
:1029400000EB81004DF2FC31C4F20001C4F89000AC
:10295000884201D920205BE682421FD21146002026
:1029600041F8040BD4F890309942BFF45AAE50604D
:1029700002F10801D4F8903099423FBF906002F113
:102980000C01D4F890309942BFF44BAED0601032B5
:10299000D4F890108A42E1D343E600BF002003B090
:1029A000BDE8F08F0000000010B54AF20041006859
:1029B000C4F20001884229D04AF20001C4F20001A9
:1029C000884218BF10BD40F22820C2F200400168C2
:1029D0000139016007D144F2EC40C5F602000168FC
:1029E00021F48071016040F200400321C5F602002D
:1029F00000F5006000F000FB1524132000F00CFD32
:102A00002046BDE8104000F007BD00BF40F228207E
:102A1000C2F2004001680139016007D144F2EC4084
:102A2000C5F60200016821F48071016040F20040A7
:102A30006021C5F6020000F0DFFA1624142000F031
:102A4000EBFC2046BDE8104000F0E6BC00000000B2
:102A5000B0B5B6B0044602A8B8210025CDE934557A
:102A6000CDE932553195FDF7A5FC4AF200412068C9
:102A7000C4F2000188423FD04AF20001C4F20001D2
:102A8000884240F09080002003904FF40040029074
:102A90004FF080501D9002A801F09AFF08B1FDF799
:102AA000C3FD40F2282144F2E040C2F20041C5F6E5
:102AB00002000A68002A02F101020A6008D1C16816
:102AC00041F48071C160C16801F480710191019984
:102AD0000168152441F0080101600068132500F029
:102AE00008000190019840F20040C5F60200032161
:102AF00000F5006034E000BF4FF4004002904FF05A
:102B000080501D9002A8039501F062FF08B1FDF707
:102B10008BFD40F2282144F2E040C2F20041C5F6AC
:102B200002000A68002A02F101020A6008D1C168A5
:102B300041F48071C160C16801F480710191019913
:102B40000168162441F0020101600068142500F0BC
:102B500002000190019840F200406021C5F6020099
:102B60003191022132910021CDE9331109213591B2
:102B700031A900F0D1FA00210022284600F078FCAB
:102B8000284600F061FC00210022204600F070FC85
:102B9000204600F059FC3F200021002200F068FC94
:102BA0003F2000F051FC36B0B0BD00000000000036
:102BB000704700000000000041F64831C2F20041B9
:102BC000884209D041F6E831C2F20041884218BF7C
:102BD000704709F005BB00BF09F0A2BA0000000071
:102BE000704700000000000090F8981001290DD1F6
:102BF000022180F8981001688A6922F001028A6136
:102C00000021C0F89C100020704700BFD0F89C1035
:102C100041F00401C0F89C10012070470000000042
:102C200090F89810022927D1016851F8182F42F026
:102C300001020A600A68D20704BF0A685FEAC2722A
:102C400022D00A6822F010020A600A68120707D52B
:102C50000A68120744BF0A685FEA027200F1D28074
:102C60000A6842F002020A600021C0F894100122B2
:102C700080F8982008467047D0F89C1041F0080171
:102C8000C0F89C10012070470A68D20704BF0A6888
:102C90005FEAC272D5D10A68D20704BF0A685FEA48
:102CA000C272CED10A68D20704BF0A685FEAC27254
:102CB000C7D10A68D20704BF0A685FEAC272C0D1EE
:102CC0000A68D20704BF0A685FEAC272B9D10A680B
:102CD000D20704BF0A685FEAC272B2D10A68D2079B
:102CE00004BF0A685FEAC272ABD10A68D20704BFA8
:102CF0000A685FEAC272A4D10A68D20704BF0A68F0
:102D00005FEAC2729DD10A68D20704BF0A685FEA0F
:102D1000C27296D10A68D20704BF0A685FEAC2721B
:102D20008FD10A68D20704BF0A685FEAC2727FF4D3
:102D300088AF0A68D20704BF0A685FEAC2727FF4EC
:102D400080AF0A68D20704BF0A685FEAC2727FF4E4
:102D500078AF0A68D20704BF0A685FEAC2727FF4DC
:102D600070AF0A68D20704BF0A685FEAC2727FF4D4
:102D700068AF0A68D20704BF0A685FEAC2727FF4CC
:102D800060AF0A68D20704BF0A685FEAC2727FF4C4
:102D900058AF0A68D20704BF0A685FEAC2727FF4BC
:102DA00050AF0A68D20704BF0A685FEAC2727FF4B4
:102DB00048AF0A68D20704BF0A685FEAC2727FF4AC
:102DC00040AF0A68D20704BF0A685FEAC2727FF4A4
:102DD00038AF0A68D20704BF0A685FEAC2727FF49C
:102DE00030AF0A68D20704BF0A685FEAC2727FF494
:102DF00028AF0A68D20704BF0A685FEAC2727FF48C
:102E000020AFC3E00A68120744BF0A685FEA027293
:102E10007FF526AF0A68120744BF0A685FEA0272AC
:102E20007FF51EAF0A68120744BF0A685FEA0272A4
:102E30007FF516AF0A68120744BF0A685FEA02729C
:102E40007FF50EAF0A68120744BF0A685FEA027294
:102E50007FF506AF0A68120744BF0A685FEA02728C
:102E60007FF5FEAE0A68120744BF0A685FEA027285
:102E70007FF5F6AE0A68120744BF0A685FEA02727D
:102E80007FF5EEAE0A68120744BF0A685FEA027275
:102E90007FF5E6AE0A68120744BF0A685FEA02726D
:102EA0007FF5DEAE0A68120744BF0A685FEA027265
:102EB0007FF5D6AE0A68120744BF0A685FEA02725D
:102EC0007FF5CEAE0A68120744BF0A685FEA027255
:102ED0007FF5C6AE0A68120744BF0A685FEA02724D
:102EE0007FF5BEAE0A68120744BF0A685FEA027245
:102EF0007FF5B6AE0A68120744BF0A685FEA02723D
:102F00007FF5AEAE0A68120744BF0A685FEA027234
:102F10007FF5A6AE0A68120744BF0A685FEA02722C
:102F20007FF59EAE0A68120744BF0A685FEA027224
:102F30007FF596AE0A68120744BF0A685FEA02721C
:102F40007FF58EAE0A68120744BF0A685FEA027214
:102F50007FF586AE0A68120744BF0A685FEA02720C
:102F60007FF57EAE0A68120744BF0A685FEA027204
:102F70007FF576AE0A68120744BF0A685FEA0272FC
:102F80007FF56EAE0A6812077FF56AAED0F89C1026
:102F900041F00101C0F89C10032180F89810012035
:102FA00070470000000000007047000000000000B3
:102FB00070470000000000007047000000000000A3
:102FC0007047000000000000704700000000000093
:102FD0007047000000000000704700000000000083
:102FE0007047000000000000704700000000000073
:102FF0007047000000000000002908BF70472DE95D
:10300000F04F81B000F1264242F2004302F1FF721C
:10301000C5F602030A2598424FEAB22440F2040E94
:1030200008BF0925082CC5F6000E38BF4FEAB225A7
:1030300000F1200C002200270024009529E000BFA9
:103040000323066803FA02FA6FF0030303EA54034A
:1030500046EA0A06066007F01C060F2505FA06F97F
:103060005CF8036026EA09064CF80360C36823EAAB
:103070000A03C360436823EA08034360836823EAC2
:103080000A0383600134043731FA04F302F10202C7
:103090003CD0012303FA04F818EA0109F2D040F207
:1030A000084324F00305C5F6000307F00C0BED58A8
:1030B0000F2303FA0BFA009B05EA0A0503FA0BF645
:1030C000B542BDD1DEF87C504FF0B04325EA09058A
:1030D000CEF87C50DEF8805025EA0905CEF8805005
:1030E000DEF8005025EA0905CEF800501E68A50854
:1030F00026EA09061E6040F20843C5F6000353F8AD
:10310000256026EA0A0643F8256099E701B0BDE884
:10311000F04F7047000000002DE9F04F85B00F68B8
:103120000390002F00F0E680039842F2004600F181
:1031300026428C4602F1FF72C5F602060A21B04211
:103140004FEAB22600F1200008BF09210090082EA6
:1031500038BF4FEAB221002400264FF00008019149
:10316000CDF808C00CE000BF08F10108DCF80070E1
:1031700037FA08F106F1020604F1040400F0BA80FF
:10318000012000FA08F217EA0209EDD0DCF804A0E9
:1031900003200AF0030B00FA06F5ABF10107012F3B
:1031A00012D803988768DCE902C3AF43B3403B43BE
:1031B0008360CAF30017436823EA020207FA08F3A0
:1031C0001A43426008E000BFDCF808C0BBF1030FFF
:1031D00008BFBCF1010F2DD003994FEA480EE84318
:1031E0000CFA06F3CA68BBF1020F22EA050242EAB2
:1031F0000302CA601AD183466FF0030000EA580246
:10320000009804F01C050F2150F802C001FA05FADD
:1032100002992CEA0A078C460B69AB403B4383506A
:10322000D1F804A058460AF0030B0BE0DDF808C003
:1032300008E000BF4FF0030BB6460BFA06F2DDF8CC
:1032400008C0D043039B1AF4403F1A6802EA000109
:103250000BFA0EF241EA020119603FF485AF44F225
:10326000F44040F20845C5F60200C5F600050168C5
:1032700041F00201016001680F2001F00201049198
:1032800028F00301049A04F00C024B5900FA02F7EB
:103290000198BB4300FA02F24FF0B0401A434A5182
:1032A0000168DCF8042041EA0903D70258BF21EA8B
:1032B00009039702036040F20400C5F600000168AC
:1032C00041EA090358BF21EA090397030360D0F8D4
:1032D000801041EA090358BF21EA0903D203C0F86C
:1032E0008030C16F41EA090358BF21EA0903C3676F
:1032F0003AE700BF05B0BDE8F08F00000000000015
:10330000002A08BF09048161704700000000000026
:1033100042F62870C2F200400068704700000000CA
:1033200040F2040042F62871C2F20040C2F20041AD
:1033300000780A6810440860704700000000000030
:1033400080B5032000F0C4F802F036FA44F21841C8
:103350004CF61423C5F60201C0F600030A68C2F356
:1033600003229A5C096801F00F0102F01F02595C08
:10337000D04040F21002C2F2004201F01F0120FAD8
:1033800001F1116040F20C01C2F2004108600F200F
:1033900000F00AF800281CBF012080BD00F02CF8C6
:1033A000002080BD00000000B0B540F20405C2F26C
:1033B00000452978F1B1044640F20C00C2F2004009
:1033C0004FF47A72B2FBF1F10068B0FBF1F002F059
:1033D00017FD0F2C01464FF001000AD8002918BF35
:1033E000B0BD4FF0FF300022214600F041F8002030
:1033F0006C60B0BD0120B0BD81B044F2F440C5F6B0
:103400000200016841F002010160006800F0020062
:103410000090009801B07047002848BF70474EF2F6
:10342000801300F01F01C0F34A10CEF20003012206
:1034300002FA01F143F82010BFF34F8FBFF36F8FF3
:103440007047000000000000002848BF704700F0EF
:103450001F01012202FA01F14EF20012C0F34A10DC
:10346000CEF2000242F82010704700000000000079
:1034700070B54EF60C5C4FF0FF36CEF2000C00F14A
:10348000604505F56445DCF80030C3F3022E8EF08C
:103490000703042B28BF0423BEF1030406FA03F339
:1034A00021EA030100F00F0338BF0024043B002889
:1034B000634406FA04F048BF03F10C05A14022EA78
:1034C000000008430001287070BD000000000000EB
:1034D0004EF60C514FF6FF03CEF200010A681A4077
:1034E00060F30A2242F0806040F0FD70086070478F
:1034F00001680122C0F8D824002280F8CC24886911
:1035000040F000608861486D40F08052002042F039
:1035100003024A6570470000704700000000000089
:1035200002680020516270472DE9F043D0F8008016
:10353000D8F8243091B1D8F82870B1F1010C03EB20
:1035400017414FD05FFA8CF30CF0030E042B08F5F3
:1035500082730BD2002700242BE000BF002043EA37
:103560000241C8F82810BDE8F08300BF0CF0FC0948
:1035700008F1F406002400BF56F8107F44F0010063
:10358000C0B244F00305EDB201EB174144F002076D
:1035900053F82000FFB2043401EB104053F8271019
:1035A00053F82550E7B200EB11404F4500EB1541B1
:1035B000E2D1BEF1000F15D053F82700BEF1010F84
:1035C00001EB10410ED0601CBEF1020FC0B253F8E7
:1035D000200001EB104105D0A01CC0B253F8200020
:1035E00001EB104108EB8C0041EA0241C0F80411E4
:1035F0000020BDE8F0830000D0F8E00406F024B914
:1036000001EBC10200EB8202D0F8E004126A06F07E
:103610007FB800000000000001EBC10200EB820255
:10362000D0F8E004D2F8602206F0CEB80000000026
:10363000D0F8E00406F00CB910B501F00F0E0A4600
:103640004FFA82FCD2090EEBCE01BCF1000F00EB69
:10365000810303F5157148BF03F1140190F8943408
:103660004A70012B81F800E002D1022010BD00BF9A
:10367000012280F8942402680446104606F030FFC8
:10368000002084F8940410BDB0B5037901F00F0256
:103690009A4201D90120B0BD4CB202EBC2038C4664
:1036A000002C00EB830303F515714FEADC1448BFCF
:1036B00003F1140190F894344C700024012B8C70A9
:1036C0000A7001D10220B0BD012280F89424026862
:1036D0000546104607F0F4F9204685F89444B0BD3D
:1036E00001F00F0101EBC10100EB8100D0F868028D
:1036F000704700000000000010B54FFA81FE01F095
:103700000F0C6FF3DF22BEF1000F0CEBCC0123D4C2
:1037100000EB810E00218EF855120EF515718EF812
:1037200054C2CEF85C228EF85832022B01D100220E
:103730004A7190F89424012A02D1022010BD00BFE2
:10374000012280F8942402680446104606F028FD01
:10375000002084F8940410BD00EB81014FF0010EAD
:1037600001F814CF81F801E08A600B71A1F81AC04A
:10377000022BDCD0DDE7000080B501F00F0C0CEB74
:10378000CC0100EB810E0021CEE998238379CEF89D
:1037900068128EF855120EF51571012B8EF854C271
:1037A00008BFCA6100681A4607F0D6F9002080BD3C
:1037B000B0B5027901F00F0494424FF001022DD808
:1037C0004FFA81FC01EBC10304EBC405BCF1000F0F
:1037D00000EB830303F5157300EB850548BF05F186
:1037E000140390F89454C9095970012D9A701C70F3
:1037F00002D10220B0BD00BF012180F8941405461B
:103800000068194607F088F92CB9A979286805F2EB
:103810009C4207F025F9002285F894241046B0BD9B
:1038200080B501F00F0C90F806E00CEBCC01BEF176
:10383000010F00EB810101F814CF4FF0000C0B6178
:103840004FF00103CA60C1F814C04B7008BFCA61D1
:103850000068724607F080F9002080BD000000007B
:103860002DE9F04F87B005688246284607F02CFC0A
:1038700010B107B0BDE8F08FDAF8000007F054FC93
:103880000028F6D0D5F80808C0F30D20CAF8D404F3
:10389000DAF8000007F048FC8007DAF8000003D5EA
:1038A000416901F00201416105F50061059107F0F0
:1038B0003BFCC006DAF80000069535D5816921F099
:1038C000100181612C6A04F00F0000EBC001C4F309
:1038D00043400AEB8101062801F5157512D0022834
:1038E0001BD147F6F07014EA000616D03409E968D7
:1038F0000698224607F01CFCE86800EB1610E8600A
:1039000008E000BF0AF29C410822069807F010FC6C
:10391000C4F30A14686920446861DAF80000816918
:1039200041F010018161069D07F0FEFB000340F1AC
:10393000F980DAF8000007F0D3FB002800F0F280ED
:1039400006464FF4306800244FF0000B0AF29C400A
:10395000049008E00BF1010B760808F1200804F14F
:10396000240400F0DF80F007F4D05FFA8BF9DAF876
:103970000000494607F0D0FB0746C00761D005EBC1
:10398000080001218160DAF8000008EB0001036CF7
:103990008A689AF80650012D26D1150734D4950669
:1039A00000F1B88043F20B05C4F65475AB42069D96
:1039B00002D312F4004231D10AEB0402D2F874327D
:1039C00009696FF3DF41A3EB0101C2F86812A4BBE0
:1039D000D2F86432002B00F0A380D2F860020844D1
:1039E000C2F8600229E000BF43F20B05C4F654752B
:1039F000FF35AB4218D11004069D0FD490061CD59C
:103A00002020886019E000BF43F20B00069DC4F639
:103A10005470834215D312F4004012D04FF400408A
:103A2000886038070FD43DE0069D34B9DAF8641297
:103A300019B90021049A07F013F850464946FFF7D8
:103A4000EBFD38072ED505EB08000821816043F215
:103A50000B01DAF80000C4F65471056C40448D4245
:103A600081680BD311F4004108D04FF4004181600C
:103A7000504600F0F1FD069D0AE000BF504600F000
:103A8000EBFD43F20B00C4F654708542069D09D34A
:103A90009AF80600012805D1DAF800000121049AFD
:103AA00006F0DEFFF80607D4B8070BD4B80624D416
:103AB000B8047FF54FAF27E005EB080010218160C7
:103AC000B807F3D56869000604D50599486840F43D
:103AD000806048600AEB040090F85712012906D173
:103AE000002180F857125046494600F001FC05EBD2
:103AF000080002218160B806DAD505EB0800202114
:103B00008160B8047FF526AF05EB08004FF4005143
:103B100081601FE720208860069D380793D4C1E7A5
:103B2000012187E7DAF8000007F0FEFA400340F1D0
:103B3000E180DAF8000007F0CBFA002800F0DA8024
:103B40000646069800F5106900250AF11400049055
:103B50000AF29C400290CDF80C9004E0760805F142
:103B6000010500F0C780F007F8D0EFB2DAF80000E6
:103B7000394607F0BDFA0446C0070BD1200735D4FB
:103B8000E00639D460063DD4A00741D42006E5D52F
:103B900058E000BF059B05F00F004FF0010C09EB4A
:103BA00045120CFA00F0596B21EA00005863C2F884
:103BB00008C09AF80600012812D105EBC500049947
:103BC00001EB8000D0E902121144C16045B90069DF
:103BD00030B9DAF800000121029A06F041FF00BF77
:103BE00050463946FFF70CFD2007C9D509EB4510B3
:103BF00008218160E006C5D509EB451010218160E0
:103C00006006C1D509EB451040218160A007BDD5F4
:103C10000698294607F0E8F905EBC500049901EB81
:103C2000800010F8031F012905D1002101705046C2
:103C3000394600F059FB09EB45100221816020064E
:103C40007FF58CAF05EBC500049901EB8008D8E93E
:103C500004108142FFF482AFDAF800400A1AD8F863
:103C600008309A4238BF134604EB451203F1030CA7
:103C7000D2F818399BB2B3EB9C0F2BD302F5106925
:103C8000D8F81010814223D9081A9AF80620D8E9EA
:103C900002B1584538BF8346009220461FFA8BF385
:103CA0003A4607F0F1FCD8F80C00D8F81410584444
:103CB000C8F80C0001EB0B00C8F814000BF103016D
:103CC000D9F8182092B2B2EB910FD9D2D8F81010CF
:103CD000DDF80C9081423FF641AF05F00F00012165
:103CE00001FA00F0D4F8341821EA0000C4F83408CE
:103CF00034E700BFDAF8000007F016FA00280DD408
:103D0000DAF80000069D07F00FFA000526D4DAF86D
:103D1000000007F009FA000131D43CE00599486839
:103D200020F0010048609AF8CC04012808D1002056
:103D30008AF8CC0400215046FFF7EEFB03E000BFF9
:103D4000504600F06DFCDAF80000069D416901F074
:103D50000041416107F0E8F90005D8D50598806871
:103D6000C00702D0504600F09FFCDAF8000041691D
:103D700001F40061416107F0D7F900010BD5DAF8D1
:103D80000000416901F0006141619AF8CC1499B1D9
:103D9000504600F089FCDAF8000007F0C5F9C004CD
:103DA0001BD4DAF8000007F0BFF98004DAF800004D
:103DB00000F10E8127E100BF01218AF8CC14406D8B
:103DC000C0F38300CAF8D0045046FFF7A5FBDAF829
:103DD000000007F0A9F9C004E3D50599486820F070
:103DE00001004860DAF80000102107F0FDF89AF8A9
:103DF0000400010600F0BB80C1B200F003000429FA
:103E000002D2002167E000BF6FF06002002302EAE7
:103E100041124FF67F370021EE1880339A4201F1AC
:103E20000401C6F80879D6F8005925F40015C6F83B
:103E30000059C6F8087BD6F8005B25F40015C6F8D3
:103E4000005BD6F8005B45F00065C6F8005BC6F87D
:103E50002879D6F8205925F40015C6F82059C6F857
:103E6000287BD6F8205B25F40015C6F8205BD6F831
:103E7000205B45F00065C6F8205BC6F84879D6F8A7
:103E8000405925F40015C6F84059C6F8487BD6F8C5
:103E9000405B25F40015C6F8405BD6F8405B45F062
:103EA0000065C6F8405BC6F86879D6F8605925F415
:103EB0000015C6F86059C6F8687BD6F8605B25F433
:103EC0000015C6F8605BD6F8605B45F00065C6F883
:103ED000605B069DA0D1002849D005F5106305F56B
:103EE000306203EB41164FF67F374D010128B76072
:103EF00002EB41145E5926F400165E51A760565934
:103F000026F400165651565946F000665651069D45
:103F10002DD04E1C02284FEA461403EB461502EB47
:103F20004616AF601D5925F400151D51069DB7605A
:103F3000175927F400171751175947F0006010510F
:103F400015D0881C4FF67F36470103EB401102EB7A
:103F500040108E60D95921F40011D9518660D05992
:103F600020F40010D051D05940F00060D051059F8E
:103F700084214422F86940F00110F8619AF80F009A
:103F800000284FF00B0008BF142104BF42F22B00A1
:103F900010227B5818437850B85840F00B00B850A6
:103FA00038680AF29C4220F4FE6038609AF80610E5
:103FB000DAF8000006F054FDDAF80000416901F477
:103FC0008051416107F0B0F88004DAF800001AD59A
:103FD00006F02AF9DAF8000007F066F88AF8070018
:103FE000DAF8004001F060FB9AF80720014620460D
:103FF00007F0BEFA504600F0FBFADAF8000041691B
:1040000001F40051416107F08FF8000706D4DAF897
:10401000000007F089F800060ED4BCE0504600F01E
:1040200003FBDAF80000416901F00801416107F083
:104030007BF8000640F1AF80A86920F08000A861FD
:104040009AF80400C1B20229C0F0A5804FF0FF31F8
:104050006FF0010252FA80F251FA80F1032A01F066
:10406000030001D201215BE00AF27B2721F003016A
:1040700005F5386300223E4605E000BF0432803378
:10408000914237464AD016F8905B012D0CD097F834
:104090002450012D18D097F84850012D24D097F8BE
:1040A0006C70012FEAD12FE053F8605C45F0006599
:1040B00043F8605C53F8605C45F0804543F8605C11
:1040C00097F82450012DE6D153F8405C45F0006587
:1040D00043F8405C53F8405C45F0804543F8405C51
:1040E00097F84850012DDAD153F8205C45F000656F
:1040F00043F8205C53F8205C45F0804543F8205C91
:1041000097F86C70012FB9D11F6847F000671F60E6
:104110001F6847F080471F60B0E700BF511C069D35
:10412000C8B301EBC1020AF5157303EB8202D27822
:10413000012A05F5306208D14F01D65946F00066D4
:10414000D651D65946F08046D651012823D04F1C6F
:1041500007EBC70603EB8606F678012E08D17F0130
:10416000D65946F00066D651D65946F08046D6510B
:10417000022810D0881C00EBC00103EB8101C97834
:10418000012908D14001115841F000611150115826
:1041900041F080411150DAF8000006F0C5FFC0027E
:1041A0004CD4DAF8000006F0BFFF800240F17E80B8
:1041B0009AF80410022928D305F5326001390AF56E
:1041C0001F72012306E000BF013900F1200002F157
:1041D00024021AD007681678012EF5D1B7F1FF3FF7
:1041E000F2DCDAF8D46486EA1747FF07ECD102F86C
:1041F000013CAF6947F08007AF616F693F06E3D4C8
:104200000599486840F400704860DAF80000416998
:1042100001F40011416106F087FF40004CD5504683
:10422000FFF7EAF9DAF80000416901F080414161E5
:1042300006F07AFF40077FF51CAB44E09AF80400D3
:10424000022827D306990AF1140401F512650AF130
:104250003B064FF00108012706E000BF013720357B
:10426000874206F1240615D229687278012AF5D111
:10427000B1F1FF3FF2DC07F00F0086F8008000EBA1
:10428000C00004EB8001DAF8000006F089FD9AF81E
:104290000400E3E7DAF80000416901F480114161AC
:1042A000069D06F041FF80023FF582AFDAF800007C
:1042B00006F03AFF4000B2D4DAF8000006F034FF0E
:1042C00040077FF5D6AADAF800004468610704D5F4
:1042D0005046FFF7ADF9DAF800004168214341602C
:1042E00007B0BDE8F08F0000D0F8E00405F018BB7F
:1042F000D0F8E00405F02CBB002800F02781F0B5D1
:1043000081B0044690F8950428B9002084F89404FC
:10431000204600F031F9032084F89504206806F067
:1043200097FBD4E90001267CD4E90223009605F02E
:104330008BFF002840F004812068002106F050FF28
:10434000002840F0FD8094F804E0BEF1000F00F07A
:10435000EE80BEF1040F0EF0030C4FF0000241D3CB
:104360000EF0FC03A4F1900003250121EE1E80F85D
:10437000A460A0F8BE60AE1E80F8C8606F1CA0F8F4
:10438000E2606E1E80F8EC609F42A0F8066105F1C5
:10439000040680F8A51080F8A820C0E92B22C0F8F8
:1043A000B42080F8C91080F8CC20C0E93422C0F8CD
:1043B000D82080F8ED1080F8F020C0E93D22C0F848
:1043C000FC2080F8111180F81051A0F82A513546D0
:1043D00080F81421C0E94622C0F8202100F19000A5
:1043E000C4D1F21EBCF1000F32D002EBC20104F1C5
:1043F00014000123BCF1010F00EB810500F821201E
:104400004FF000016B706A832971C5E902112961BF
:104410001ED0551CBCF1020F05EBC50600EB86074C
:1044200000F826507B707D833971C7E9021139612C
:104430000ED0911C012501EBC10200EB820300F8B4
:10444000221000205D7059831871C3E902001861C1
:10445000BEF1000F6BD0BEF1040F4FF0000236D357
:104460000EF0FC0003232146DF1E81F854729F1ECC
:1044700081F878725F1E81F89C725F1C1D1D81F8A7
:104480005522874281F85822C1E99722C1F8642257
:1044900081F8792281F87C22C1E9A022C1F8882222
:1044A00081F89D2281F8A022C1E9A922C1F8AC229D
:1044B00081F8C12281F8C0322B4681F8C422C1E9BB
:1044C000B222C1F8D02201F19001CDD1EA1EBCF197
:1044D000000F2CD002EBC20304F515700021BCF1D3
:1044E000010F00EB830700F8232079703971C7E9C9
:1044F000021139611BD0531CBCF1020F03EBC3073F
:1045000000EB870600F8273071703171C6E902119F
:1045100031610CD0911C002701EBC10200EB82033A
:1045200000F822105F701F71C3E902771F61D4E9A0
:104530000001277CD4E90223009706F031F838B156
:10454000022084F89504012001B0F0BD01207047DD
:1045500000206074012084F89504207B012802D19A
:104560002046FEF7C5FF206806F00AF8002001B0DB
:10457000F0BD00000000000010B5B0B002A9044674
:1045800001F10800B021FBF715FF00212068C4F2FB
:104590000401884202D030B010BD00BF002003905B
:1045A0004FF4802002904FF44010239002A800F0B6
:1045B0000FFA08B1FCF738F800F0BAF844F2D84026
:1045C0000022C5F60200016841F000710160006838
:1045D000002100F00070019001984D20FEF748FF87
:1045E0004D20FEF731FF30B010BD0000000000008C
:1045F00010B50446C07928B1022801D0FCF714F8A0
:10460000012100E00021D4F8E00405F031FAD4F8EB
:10461000E004BDE8104005F0DBB900000000000038
:10462000D0F8E00405F008BAD0F8E00405F010BABC
:1046300090F89424012A01D10220704710B501227C
:1046400080F89424417404460268104606F07CFF0A
:10465000002084F8940410BDD0F8E02400F29C41BE
:10466000104605F01DBA000010B5044690F89404F9
:10467000012801D1022010BD2068012184F8941482
:10468000C168490606D5617B012903D1816B41F4DC
:104690008031816306F0A0FC206805F061FF0020F6
:1046A00084F8940410BD000010B50446D0F8E0046E
:1046B00005F052FA2068D0F8001E41F00101C0F860
:1046C000001EE07A002808BF10BD4EF61050CEF252
:1046D0000000016841F00601016010BD000000000B
:1046E000B0B544F60C05C5F60205296849072968E6
:1046F00006D401F00701081A18BF0120B0BD00BFA1
:1047000021F0070108432860FEF702FE044600BFBF
:1047100055F8080C800407D4FEF7FAFD001BB0F52D
:104720007A7FF5D90120B0BD0020B0BD00000000A7
:1047300044F60C00C5F60200016841F0807101608A
:10474000704700000000000080B500F0ADFF44F2AB
:1047500020414CF61422C5F60201C0F60002096899
:10476000C1F30211515C01F01F01C84080BD00007F
:1047700080B544F2384EC5F6020E5EF8103C5EF885
:10478000101C5EF80C2CC1F3053CDEF80410BCF1E3
:10479000000F15D0C908D20601EAE2716FF35F314C
:1047A00000EE101A03F003010229B8EE400A0DD002
:1047B00081B95EF8381C890610D49FED361A1BE0CB
:1047C00000218160C0E9001180BD00BF9FED301A5B
:1047D00012E000BF9FED2D1A0EE000BF5EF8381CFE
:1047E00049F20002C0F2D032C1F3C10122FA01F154
:1047F00001EE101AB8EE411ADEF800109FED263ACD
:104800006FF35F2102EE101ADEF80010C1F34621AB
:10481000B8EE422A00EE032A00EE10CAB7EE003AC4
:10482000B8EE400A81EE000A32EE031A02EE101AC8
:10483000B8EE422A20EE010A32EE031A80EE011A87
:10484000BCEEC11A80ED001ADEF80010C1F306417B
:1048500001EE101AB8EE411A31EE031A80EE011A79
:10486000BCEEC11A80ED011ADEF80010C1F306613A
:1048700001EE101AB8EE411A31EE031A80EE010A69
:10488000BCEEC00A10EE101A816080BD0024744A8C
:10489000001BB74B0024744C0000003900000000DE
:1048A00080B544F2404EC5F6020E5EF8183C5EF844
:1048B000181C5EF8142CC1F3055CDEF80410BCF182
:1048C000000F15D0C908D20501EAE2716FF35F311C
:1048D00000EE101A03F003010229B8EE400A0DD0D1
:1048E00081B95EF8401C890610D49FED361A1BE092
:1048F00000218160C0E9001180BD00BF9FED301A2A
:1049000012E000BF9FED2D1A0EE000BF5EF8401CC4
:1049100049F20002C0F2D032C1F3C10122FA01F122
:1049200001EE101AB8EE411ADEF800109FED263A9B
:104930006FF35F2102EE101ADEF80010C1F346217A
:10494000B8EE422A00EE032A00EE10CAB7EE003A93
:10495000B8EE400A81EE000A32EE031A02EE101A97
:10496000B8EE422A20EE010A32EE031A80EE011A56
:10497000BCEEC11A80ED001ADEF80010C1F306414A
:1049800001EE101AB8EE411A31EE031A80EE011A48
:10499000BCEEC11A80ED011ADEF80010C1F3066109
:1049A00001EE101AB8EE411A31EE031A80EE010A38
:1049B000BCEEC00A10EE101A816080BD0024744A5B
:1049C000001BB74B0024744C0000003900000000AD
:1049D0002DE9F0470446C07844F22C480007C5F69C
:1049E000020828D5606E4FEA305103292AD8DFE843
:1049F00001F0030B131B00BFD8F8001041F4003185
:104A0000C8F8001010E000BF04F10800022103F014
:104A10008FF9064680B906E004F12800022103F070
:104A20001BFA064640B9606ED8F8241021F44011F4
:104A30000843C8F8240000266078C00706D1354630
:104A40002FE000BF01266078C007F8D0A06D0428D1
:104A50003ED83546DFE800F004140E0B0B0000BF13
:104A6000D8F80000354640F40030C8F800002F4662
:104A7000C5B90DE004F12800002103F0EDF904E0D0
:104A800004F10800002103F053F905462F464DB903
:104A9000D8F82400A16D20F0070000250843C8F8CD
:104AA00024003746607840073AD5D4F8A4004FEA8E
:104AB0007050052818D8DFE800F0031D11232323C8
:104AC000D8F8000040F40030C8F8000018E000BF3B
:104AD0000125012760784007E7D421E004F1280090
:104AE000002103F0B9F90AE00125012660780007EA
:104AF0001AD44FE004F10800002103F019F905462B
:104B00002E461DB1607800070ED443E0D8F82C0083
:104B1000D4F8A41020F4600000250843C8F82C0045
:104B20003E466078000735D5D4F8A8004FEA3060DB
:104B3000052813D8DFE800F004180C1E1E1E00BF65
:104B4000D8F8000040F40030C8F8000012E000BFC0
:104B500004F12800002103F07FF90AE00125012774
:104B6000E07880071AD434E004F10800002103F053
:104B7000DFF805462F461DB1E07880070ED428E007
:104B8000D8F82C00D4F8A81020F0E06000250843E5
:104B9000C8F82C003746E07880071AD5E06C4FEA59
:104BA0003010032838D8DFE800F009032D0900BFD2
:104BB000D8F8000040F40030C8F800002E464DB987
:104BC000D8F82000E16C20F0300000250843C8F838
:104BD00020003E466078C00639D5E06D4FEA30309F
:104BE000042847D8DFE800F004221C0A0A0000BFAE
:104BF000D8F8000040F40030C8F800002F463DBB54
:104C00001CE000BF04F10800022103F091F8054602
:104C1000002D2E46DED1D3E701250126DAE700BFBD
:104C200004F12800002103F017F904E004F1080062
:104C3000002103F07DF805462F464DB9D8F8240031
:104C4000E16D20F4E04000250843C8F82400374611
:104C50006078800635D5206E4FEA3040052815D89B
:104C6000DFE800F0041A0E04040400BF2E46DDB98C
:104C70001EE000BF0125012760788006EBD420E00C
:104C800004F12800012103F0E7F80AE001250126DC
:104C90006078400619D449E004F10800012103F0CE
:104CA00047F805462E461DB1607840060DD43DE01C
:104CB000D8F82400216E20F4E02000250843C8F82D
:104CC00024003E466078400630D5D4F8AC004FEA68
:104CD000307005280ED8DFE800F003130703030344
:104CE0002F46ADB918E000BF04F12800012103F000
:104CF000B3F80AE001250127607800061AD43CE0E9
:104D000004F10800012103F013F805462F461DB1F8
:104D1000607800060ED430E0D8F82C00D4F8AC103F
:104D200020F0E04000250843C8F82C0037466078A2
:104D3000000622D5E06E58B1B0F1005F0CD0B0F1A2
:104D4000805F37D1D8F8000040F40030C8F8000088
:104D50002E469DB908E000BF04F10800012102F0D1
:104D6000E7FF05462E464DB9D8F82400E16E20F045
:104D7000405000250843C8F824003E46E078C007AC
:104D80001DD0A06C032855D8DFE800F008024A08BF
:104D9000D8F8000040F40030C8F80000A9467DB9FA
:104DA000D8F82000A16C20F0030000250843C8F8C3
:104DB000200004E001250126E078C007E1D1B146DA
:104DC000A078400602D44F4618E000BFD8F8D403BC
:104DD00040F48070C8F8D403FEF79AFA064600BF84
:104DE000D8F8D403C00507D4FEF792FA801B6428D4
:104DF000F6D90325032701E02F46FDB12078C0072F
:104E000000F06F80A06F4FEAF00005284ED8DFE871
:104E100000F0035347030303002D2E4654D157E0FF
:104E200004F10800022102F083FF0546002DA94687
:104E3000C6D1B5E701254FF00109C1E7D8F8441004
:104E4000D4F8B000414011F4407F11D0D8F844109C
:104E5000D8F8442042F48032C8F84420D8F84420DE
:104E600021F4407122F48032C8F84420C8F844107C
:104E7000B0F5807F40F0D082FEF74AFA064641F254
:104E8000883A0325032700BFD8F84400800700F1C3
:104E9000C182FEF73DFA801B5045F5D9AEE700BF51
:104EA00004F12800012102F0D7FF0AE001250126C4
:104EB0002078800719D446E004F10800012102F0AF
:104EC00037FF05462E461DB1207880070DD43AE005
:104ED000D8F82800A16F20F0380000250843C8F852
:104EE00028003E46207880072DD5606F05280FD812
:104EF000DFE800F004140804040400BF2F46ADB935
:104F000018E000BF04F12800012102F0A5FF0AE02B
:104F1000012501272078400719D447E004F1080053
:104F2000012102F005FF05462F461DB120784007FC
:104F30000DD43BE0D8F82800616F20F00700002571
:104F40000843C8F828003746207840072ED5D4F803
:104F5000900005280ED8DFE800F0031307030303D1
:104F60002E46ADB918E000BF04F12800012102F07F
:104F700073FF0AE001250126207880061AD44BE051
:104F800004F10800012102F0D3FE05462E461DB1B2
:104F9000207880060ED43FE0D8F82C00D4F890108A
:104FA00020F0070000250843C8F82C003E46207872
:104FB000800631D5D4F88C004FEA307005280FD820
:104FC000DFE800F004140804040400BF2F46ADB964
:104FD00018E000BF04F12800022102F03DFF0AE0C2
:104FE00001250127207840061AD44BE004F108007F
:104FF000002102F09DFE05462F461DB12078400697
:105000000ED43FE0D8F82800D4F88C1020F0E0400F
:1050100000250843C8F8280037462078400631D5D7
:10502000D4F898004FEAB02005280FD8DFE800F048
:1050300004140804040400BF2E46ADB918E000BFF4
:1050400004F12800022102F007FF0AE001250126F1
:10505000207800061AD44EE004F10800002102F086
:1050600067FE05462E461DB1207800060ED442E0AC
:10507000D8F82C00D4F8981020F4E050002508430C
:10508000C8F82C003E462078000634D5D4F89C00A1
:105090004FEA7030052815D8DFE800F0041A0E0436
:1050A000040400BF2F46E5B12068010727D4C106DC
:1050B0003ED4000355D477E004F12800022102F029
:1050C000CBFE0AE00125012720680107EFD516E095
:1050D00004F10800002102F02BFE0546002D2F46AA
:1050E000E2D1D8F82C00D4F89C1020F460400025C0
:1050F0000843C8F82C00374620680107D7D5D4F8F4
:105100008000B0F5805F09D104F12800022102F08F
:10511000A3FE002818BF0127D4F88000D8F8281073
:1051200021F440510843C8F828002068C106C0D5C2
:10513000D4F89400B0F5807F09D104F12800022151
:1051400002F08AFE002818BF0127D4F89400D8F88E
:105150002C1021F440710843C8F82C00206800038B
:1051600022D5D4F8A000B0F5003F11D0B0F5803FB3
:1051700008D0002844D104F10800002102F0D8FD35
:1051800005E000BF04F12800022102F065FE05469B
:105190002E4655B9D8F82C00D4F8A01020F4403091
:1051A00000250843C8F82C003E46A07840072CD5BF
:1051B000D4F88400B0F5401F0BD0B0F5001F0BD021
:1051C000B0F5801F2AD1D8F8000040F40030C8F8AC
:1051D00000002F46D5B907E004F12800012102F0B4
:1051E0003BFE05462F468DB9D8F82800D4F8841028
:1051F00020F4401000250843C8F8280005E000BF4F
:1052000001250126A0784007D2D43746A078C007F0
:1052100009D13E462168880015D532E001250127D5
:10522000A078C007F5D0206DB0F5803F10D018BB36
:10523000D8F8000040F40030C8F800002E4685B1D0
:10524000216888001DD460688A0326D465E000BF09
:1052500004F10800022102F06BFD0546002D2E46E8
:10526000EED1D8F82000216D20F4803000250843CD
:10527000C8F82000CDE700BF01250126216888007D
:10528000E1D504F12800022102F0E6FD002818BF54
:105290000126D4E900108A033FD5E26F6FF00103C5
:1052A00003EB3223022B0BD34FEA322343B1012B02
:1052B00040F0AA80D8F8003043F40033C8F800303A
:1052C00025B3CA022CD48A0234D44A003CD4CA0F73
:1052D00049D1090251D4C1075AD1810763D441078A
:1052E0006CD4010776D4C10600F18080800607D512
:1052F00004F12800022102F0AFFD002818BF0125AB
:10530000002D18BF01252846BDE8F087D8F82830C1
:1053100023F440731A43C8F828203546CA02D2D570
:10532000D8F82420236F22F000421A43C8F8242022
:105330008A02CAD5D8F82420A36E22F080721A43BC
:10534000C8F824204A00C2D558F81C2C22F4004288
:1053500048F81C2CD4F8B42058F81C3C1A4348F8E0
:105360001C2CCA0FB5D0D8F82020636D22F0405213
:105370001A43C8F820200902ADD5D8F82810D4F86F
:10538000882021F440011143C8F82810C107A4D097
:1053900004F10800002102F0CBFC002818BF0546EC
:1053A000606881079BD504F10800012102F0C0FC70
:1053B000002818BF05466068410792D504F108002F
:1053C000022102F0B5FC002818BF054660680107FD
:1053D0007FF589AF04F12800002102F03DFD00288F
:1053E00018BF05466068C1067FF580AF04F128004C
:1053F000012102F031FD002818BF054660688006D3
:105400003FF576AF7CE700BF0125CA027FF55BAFB1
:1054100086E700BFD4F8B0004FF6CF7358F81C2CC5
:10542000C0F2FF0300F4407122F47C5203EA10132F
:105430006FF31F30B1F5407F08BF1A43002548F8CD
:105440001C2CD8F844100843C8F84400FFF7BBBC34
:105450002DE9F04381B0002800F0208142F20009DC
:105460000446C5F20029D9F8000000F00F00884278
:105470000DD2D9F8000020F00F000843C9F8000051
:10548000D9F8000000F00F00884240F00781206842
:1054900044F218464207C5F602060AD52269336867
:1054A00003F070039A4204D9336823F070031A435F
:1054B000326002070AD56269736803F070039A428A
:1054C00004D9736823F070031A437260C2060AD5C8
:1054D000A269736803F4E0639A4204D9736823F401
:1054E000E0631A43726082060AD5E269B36803F08A
:1054F00070039A4204D9B36823F070031A43B26070
:1055000010F002020AD0E368376807F00F07BB42C9
:1055100004D9376827F00F073B433360C3073FD0F8
:10552000306820F47062D4E901031A433260012824
:1055300056F8182C0AD0032804D002280AD1920366
:105540000BD4ABE0920108D4A8E000BFD20504D48C
:10555000A4E000BF520740F1A180884656F8081C1D
:1055600021F00701084346F8080CFDF7D1FE054677
:1055700041F2883756F8080C616800F03800B0EB4B
:10558000C10F09D0FDF7C4FE401BB842F2D9032079
:1055900001B0BDE8F08300BF2068414600F0020280
:1055A00052B1E268336803F00F039A4204D23368C1
:1055B00023F00F031A433260D9F8002002F00F02E3
:1055C0008A420CD9D9F8002022F00F020A43C9F808
:1055D0000020D9F8002002F00F028A425ED1410774
:1055E0000AD52169326802F07002914204D2326811
:1055F00022F070021143316001070AD561697268B7
:1056000002F07002914204D2726822F070021143DB
:105610007160C1060AD5A169726802F4E062914224
:1056200004D2726822F4E0621143716080060AD5E8
:10563000E069B16801F07001884204D2B16821F0DC
:1056400070010843B06000F0B7F831684CF61422DE
:10565000C0F60002C1F30321515C336803F00F036D
:1056600001F01F01D25C20FA01F102F01F0040F2AC
:105670001002C2F2004221FA00F0106040F208006D
:1056800040F20C02C2F20040C2F200420068116017
:1056900001B0BDE8F043FDF787BE00BF012001B0B7
:1056A000BDE8F0830000000080B500F085F844F20A
:1056B00018414CF61423C5F60201C0F600030A682F
:1056C000C2F303229A5C096801F00F0102F01F0285
:1056D000595C20FA02F201F01F0040F21001C2F200
:1056E000004122FA00F0086040F20C01C2F20041D1
:1056F0000A6080BD0000000080B500F05DF844F253
:10570000184C4CF61423C5F6020CC0F60003DCF866
:105710000020C2F303229A5CDCF8001001F00F01B4
:1057200002F01F02595CD04040F21002C2F2004267
:1057300001F01F0120FA01F1116040F20C02C2F2E7
:1057400000421060DCF80400C0F30210185C00F0A6
:105750001F0021FA00F080BD80B500F02DF844F262
:10576000184C4CF61423C5F6020CC0F60003DCF806
:105770000020C2F303229A5CDCF8001001F00F0154
:1057800002F01F02595CD04040F21002C2F2004207
:1057900001F01F0120FA01F1116040F20C02C2F287
:1057A00000421060DCF80400C0F30220185C00F036
:1057B0001F0021FA00F080BD44F20041C5F602014D
:1057C0000869C0F3C200032816D002280ED098BB87
:1057D0000868800649F20000C0F2D03058BF704718
:1057E0000968C1F3C101C840704700BF43F20060BF
:1057F000C0F26E10704700BF8A6A886AC0F3051C49
:10580000C86ABCF1000F4B6B1CD000F00100404295
:1058100000EAD3006FF35F3000EE100A02F00300DD
:105820000228B8EE400A0FD090B90868800613D459
:105830009FED251A1DE000BF40F60010C0F23D00AC
:10584000704700BF002070479FED1E1A11E000BF97
:105850009FED1B1A0DE000BF086849F20002C0F27C
:10586000D032C0F3C10022FA00F001EE100AB8EE07
:10587000411A086B9FED153A6FF35F2002EE100A94
:10588000086BC0F34620B8EE422A013000EE032A2E
:1058900000EE10CAB7EE003AB8EE400A81EE000AF8
:1058A00032EE031A20EE010A01EE100AB8EE411A98
:1058B00080EE010ABCEEC00A10EE100A704700BF6D
:1058C0000024744A001BB74B0024744C00000039BC
:1058D00070B3F0B581B00446007844F20046C007CA
:1058E000C5F6020626D1207880076AD5306910F007
:1058F0003801B06A42D0182908BF5FEA80703DD0F5
:10590000E0683168002800F02D8121F0190108437A
:105910003060FDF7FDFC0546306840074AD4FDF7CE
:10592000F7FC401B0228F7D9032001B0F0BD00BFEF
:1059300001207047306900F03801B06A102905D0A5
:1059400018290BD100F00300022807D1306880032A
:10595000C9D560680028C6D1AAE000BF6168306878
:10596000002900F03981B1F5A02F00F02D81B1F5AB
:10597000803F40F0478140F4803049E13068400783
:10598000E06802D5002800F09380316821F0190109
:1059900008433060FDF7BCFC054600BF3068400797
:1059A00008D4FDF7B5FC401B02284FF00300F5D9E1
:1059B00001B0F0BD7068216920F0FE4040EA01604E
:1059C00070602078C0061AD5306900F03801B06ADE
:1059D000082907D0182940F0858000F0030001282D
:1059E00040F080803068C00502D5E06980285FD132
:1059F000F068216A20F07C5040EA0160F060207875
:105A000000073FD42078800656D42078400700F164
:105A10008180656A9DB3306900F03800182840F035
:105A20001981012DB16A306B42D001F00302A36AE3
:105A30009A423DD1C1F30511E26A914238D1014643
:105A4000226B6FF35F21013A914231D1C0F34622BC
:105A5000616B01398A422BD1C0F30642A16B013937
:105A60008A4225D1C0F30660E16B013988421FD11B
:105A7000706BA16CC0F3CC00814240F0A581002086
:105A800001B0F0BD60690028706F59D040F001008E
:105A90007067FDF73DFC0546706F8007B2D4FDF7D7
:105AA00037FC401B0228F7D9032001B0F0BD00BF2E
:105AB000012001B0F0BD00BFA0690028306871D09E
:105AC00040F480503060FDF723FC054630688004C8
:105AD0009BD4FDF71DFC401B0228F7D9032001B021
